S013000046616E5F50726F6A6563742E73726563C6
S113000045C0000062C0000060C000005EC0000087
S11300105CC000005AC0000058C0000056C0000078
S113002054C000000C94DF0950C000004EC0000012
S11300304CC000004AC0000048C0000046C0000098
S11300400C94B60942C000000C94070A3EC000009C
S11300503CC000003AC0000038C0000036C00000B8
S113006034C0000032C0000030C000002EC00000C8
S11300702CC000002AC0000028C0000026C00000D8
S113008024C0000022C0000020C0000011241FBEB4
S1130090CFEFD0E1DEBFCDBF11E0A0E0B1E0E6E6F6
S11300A0FDE100E00BBF02C007900D92A23CB10736
S11300B0D9F722E0A2ECB1E001C01D92AA36B20742
S11300C0E1F70E942E0A0C94B10E9ACF20E049E386
S11300D050E06AE370E08BED91E0CBD521E049E399
S11300E050E06AE370E089EE91E0C3D522E049E391
S11300F050E06AE370E084ED91E0BBD523E049E38E
S113010050E06AE370E083EE91E0B3C5089517D33D
S11301108093E201813011F138F0823009F438C063
S1130120833009F44EC0089580E090E00BD383EE51
S113013091E0ACD5813031F4E7D681E08093E201DF
S1130140FBC208958BED91E0A1D5813009F051C037
S113015054D61092DA0180E0E3C2089584EB90E073
S1130160F1D283EE91E092D5813031F4CDD682E0A4
S11301708093E201E1C208958BED91E087D581304F
S113018009F037C03AD61092DA0180E0C9C2089566
S11301908CE291E0D7D283EE91E078D5813031F4CE
S11301A0B3D683E08093E201C7C208958BED91E05A
S11301B06DD58130F1F421D61092DA0180E0B0C21D
S11301C0089584EA91E0BED283EE91E05FD5813058
S11301D031F4D2D61092E20180E0AEC208958BEDE4
S11301E091E054D5813029F408D61092DA0180E0E8
S11301F097C2089598D28093DA01823009F446C0F8
S113020028F4882351F08130C9F00895833009F42B
S113021065C0843009F489C0089589EE91E036D52B
S1130220813031F08BED91E031D5813009F095C00A
S11302304BD481E08093DA0173C2089568DF89EEBC
S113024091E024D5813031F43DD482E08093DA0109
S113025067C208958BED91E019D5813031F4CDD585
S11302601092DA0180E05CC2089584ED91E00ED52D
S1130270813009F072C01BD68091DA018093E101CC
S113028055D284E08093DA014BC2089540DF89EEB1
S113029091E0FCD4813031F415D483E08093DA0109
S11302A03FC208958BED91E0F1D4813031F4A5D5AE
S11302B01092DA0180E034C2089584ED91E0E6D42E
S11302C0813009F04AC0F3D58091DA018093E101CD
S11302D02DD284E08093DA0123C2089518DF89EED9
S11302E091E0D4D4813031F4EDD381E08093DA010C
S11302F017C208958BED91E0C9D4813031F47DD5D6
S11303001092DA0180E00CC2089584ED91E0BED42D
S1130310813019F5CCD58091DA018093E10106D2C0
S113032084E08093DA01FCC10895F1DE89EE91E066
S1130330ADD4813039F477D6BAD5FBD18093DA01C4
S1130340EFC108958BED91E0A1D4813031F46BD6E7
S113035054D51092DA0180E0E3C10895CF93DF937E
S1130360E2D18093DA01823009F46AC028F4882348
S113037051F0813031F108C1833009F4A0C08430D8
S113038009F4DBC001C10E94FB0A8823D1F00E945A
S1130390F80A0E94FE0AEC0163E271E00E948A0BF3
S11303A0892B39F061E371E0CE010E948A0B892B1D
S11303B041F481E08093DA01B3D189E391E00E94B2
S11303C0A60B0E94FB0A882309F4DEC00E94F80AE7
S11303D00E94FE0AEC0163E271E00E948A0B892B01
S11303E049F482E08093DA019BD18EE391E00E948C
S11303F0A60BCAC061E371E0CE010E948A0B892B6F
S113040049F41092DA0180E08BD185E491E00E94F6
S1130410A60BBAC06DE471E0CE010E948A0B892B51
S113042009F0B2C08091DA018093E1017FD184E0C8
S11304308093DA0175D183E591E00E94A60BA4C0F4
S11304400E94FB0A882309F49FC00E94F80A0E94B4
S1130450FE0AEC0163E271E00E948A0B892B49F4E5
S113046083E08093DA015CD188E591E00E94A60BD9
S11304708BC061E371E0CE010E948A0B892B49F4A1
S11304801092DA0180E04CD185E491E00E94A60B41
S11304907BC06DE471E0CE010E948A0B892B09F0C8
S11304A073C08091DA018093E10140D184E08093AC
S11304B0DA0136D183E591E00E94A60B65C00E9463
S11304C0FB0A882309F460C00E94F80A0E94FE0A0D
S11304D0EC0163E271E00E948A0B892B49F481E00C
S11304E08093DA011DD189E391E00E94A60B4CC0F0
S11304F061E371E0CE010E948A0B892B49F41092CA
S1130500DA0180E00DD185E491E00E94A60B3CC0A5
S11305106DE471E0CE010E948A0B892BA9F58091CC
S1130520DA018093E10102D184E08093DA01F8D00A
S113053083E591E00E94A60B27C00E94FB0A882352
S113054019F10E94F80A0E94FE0AEC0163E271E0CC
S11305500E948A0B892B49F4ECD08093DA01E0D015
S11305608FE591E00E94A60B0FC061E371E0CE011C
S11305700E948A0B892B41F41092DA0180E0D0D0DA
S113058085E491E00E94A60BDF91CF910895CF936B
S1130590DF93D5D08093E2018130C9F138F0823005
S11305A009F463C0833009F48DC0B7C080E090E0E3
S11305B0C9D00E94FB0A882309F4AFC00E94F80A3C
S11305C00E94FE0AEC0164E671E00E948A0B892B0A
S11305D069F481E08093E201AFD082E791E09F93D8
S11305E08F930E94930B0F900F9097C061E371E07B
S11305F0CE010E948A0B892B09F08FC01092DA0178
S113060080E08ED085E491E00E94A60B86C084EB46
S113061090E098D0F0D7882309F47FC0E9D7EED7CB
S1130620EC0164E671E00E948A0B892B69F482E094
S11306308093E20181D089E791E09F938F930E9498
S1130640930B0F900F9069C061E371E0CE010E949B
S11306508A0B892B09F061C01092DA0180E060D026
S113066085E491E00E94A60B58C08CE291E06AD028
S1130670C2D7882309F451C0BBD7C0D7EC0164E6C4
S113068071E00E948A0B892B69F483E08093E20174
S113069053D080E891E09F938F930E94930B0F9027
S11306A00F903BC061E371E0CE010E948A0B892B5D
S11306B0A1F51092DA0180E033D085E491E00E9444
S11306C0A60B2BC084EA91E03DD095D7882329F16D
S11306D08FD794D7EC0164E671E00E948A0B892BD2
S11306E069F41092E20180E027D087E891E09F93BB
S11306F08F930E94930B0F900F900FC061E371E0F2
S1130700CE010E948A0B892B41F41092DA0180E019
S113071007D085E491E00E94A60BDF91CF91089564
S11307208093EF0108958091EF0108958093F00183
S113073008958091F00108958093F10108958091C6
S1130740F10108959093F3018093F201089580914B
S1130750F2019091F30108956093F4017093F5010F
S11307608093F6019093F70108956091F4017091DC
S1130770F5018091F6019091F7010895A1D559D41E
S11307801092FE011092F9011092FA011092FB01ED
S11307901092FC010895C7DF823091F028F4882379
S11307A041F0813041F00895833071F0843081F05C
S11307B0089539C4089531D48CE291E00AC40895AF
S11307C088E592E006C4089580EB94E002C408959D
S11307D08091FD01811111C020D48CE291E0F9D304
S11307E08091FE01813009F046C08091FD018F5F48
S11307F08093FD011092FE010895813069F413D4B1
S11308008091FE018130B9F58091FD018F5F809365
S1130810FD011092FE010895823081F4FED380EB35
S113082094E0D7D38091FE01813029F58091FD01B8
S11308308F5F8093FD011092FE0108958330D9F4F7
S1130840F2D38091F9019091FA01A091FB01B0914A
S1130850FC01883E9340A105B10569F48091FD0136
S11308608F5F8093FD011092F9011092FA011092AA
S1130870FB011092FC0108954F925F926F927F9258
S11308808F929F92AF92BF92CF92DF92EF92FF929C
S11308901F93CF93DF93CDB7DEB7CE56D1090FB6F2
S11308A0F894DEBF0FBECDBF3EDF182F5EDF2B01F5
S11308B03C014B015C012FEF821A920AA20AB20A90
S11308C0C501B40128EE33E040E050E0ADD6CA01E2
S11308D0B9012CE330E040E050E0A6D66B017C0186
S11308E06093C2017093C3018093C4019093C501C6
S11308F0C501B40120E63AEE40E050E095D62093DD
S1130900C6013093C7014093C8015093C90164E6FE
S1130910629FC001639F900D11248C0D9D1D78D49E
S1130920C301B20128EE33E040E050E07DD6643FDD
S113093071408105910510F483D301C085D3123031
S1130940C9F128F4112351F01130F1F074C01330BF
S113095009F446C0143009F459C06DC0E0E0F1E078
S113096081818F9380818F9381E991E09F938F930D
S1130970CE0101969F938F9319D70F900F900F90EC
S11309800F900F900F9057C0E0E0F1E083818F93B8
S113099082818F9381E991E09F938F93CE01019699
S11309A09F938F9303D70F900F900F900F900F90FA
S11309B00F9041C0E0E0F1E085818F9384818F93B3
S11309C081E991E09F938F93CE0101969F938F933A
S11309D0EDD60F900F900F900F900F900F902BC0AB
S11309E0E0E0F1E087818F9386818F9381E991E044
S11309F09F938F93CE0101969F938F93D7D60F9099
S1130A000F900F900F900F900F9015C0E0E0F1E061
S1130A1081858F9380858F9381E991E09F938F9354
S1130A20CE0101969F938F93C1D60F900F900F9094
S1130A300F900F900F907E018FE1E80EF11C8EE075
S1130A40E5E9F1E0D70101900D928A95E1F7A7015C
S1130A5062E080E082D4E2ECF1E081818F938081D6
S1130A608F93E6ECF1E081818F9380818F9383EA09
S1130A7091E09F938F93FF92EF9298D6B701CE01A6
S1130A8001963DD6AC0163E081E067D40FB6F894DB
S1130A90DEBF0FBECDBFC259DF4F0FB6F894DEBF25
S1130AA00FBECDBFDF91CF911F91FF90EF90DF90EC
S1130AB0CF90BF90AF909F908F907F906F905F90FA
S1130AC04F900895D5C1089541C108951092F90138
S1130AD01092FA011092FB011092FC011092FE0197
S1130AE008958091F9019091FA01A091FB01B091D0
S1130AF0FC01BC01CD016F5F7F4F8F4F9F4F28EEEC
S1130B0033E040E050E090D56093F9017093FA012E
S1130B108093FB019093FC01672B682B692B49F4AC
S1130B208091FE0190E0019663E070E06AD58093C5
S1130B30FE010895CF92DF92EF92FF9208DE6C01DE
S1130B40E12CF12CF0DD81110CC080E090E0FADDA5
S1130B5060E070E0CB0100DE80E0EEDD1092CE01BB
S1130B6083C0C114D104E104F10439F460E070E0FD
S1130B70CB01F2DD1092CE0177C0E091CE01E111FC
S1130B8016C084EBC816D104E104F10481F4A8EE84
S1130B90B3E0A701960195D56093CA017093CB0188
S1130BA08093CC019093CD01EF5FE093CE01E0916F
S1130BB0CE01E130C1F48CE2C81681E0D806E1042C
S1130BC0F10489F4A8EEB3E0A70196017AD5609305
S1130BD0CA017093CB018093CC019093CD01EF5F58
S1130BE0E093CE0118C0E230B1F484EAC81681E083
S1130BF0D806E104F10479F4A8EEB3E0A701960164
S1130C0060D56093CA017093CB018093CC0190931B
S1130C10CD011092CE016091CA017091CB018091F7
S1130C20CC019091CD0198DD8091CA019091CB01C6
S1130C30A091CC01B091CD010197A109B109809394
S1130C40CA019093CB01A093CC01B093CD01892B21
S1130C508A2B8B2B49F480E063DD1092CE0180E077
S1130C6090E070DD80E068DDFF90EF90DF90CF9042
S1130C700895FC01CB0171836083538342832483F1
S1130C8031E03583422F61E01EC40895CF93DF9392
S1130C90EC016C818A819B814ED481110CC09D81B1
S1130CA0913049F48FE39CE90197F1F700C000000B
S1130CB01D8280E011C0882361F08D8181110BC0F9
S1130CC08FE39CE90197F1F700C0000081E08D8378
S1130CD003C082E001C082E0DF91CF9108958436A1
S1130CE0910528F0813A2FE0920720F405C084E6AC
S1130CF090E002C080EA9FE09C0140E050E060E99F
S1130D0070ED83E090E0B2D42150310937BD26BDA7
S1130D1086B597B5969587959BBD8ABD08958FB581
S1130D2080688FBD08958FB58F738FBD089540E09F
S1130D3063E087E390E0C7D38EB588618EBD8FB53D
S1130D4082608FBD8EB583608EBD0895E8DF1DBCC3
S1130D501CBC87E295E0C3DF2FEF82E597E02150CA
S1130D6080409040E1F700C000001DBC1CBC83E93A
S1130D7092E0B5DF2FEF81EE94E021508040904067
S1130D80E1F700C000001DBC1CBC8CED93E0A7DFA4
S1130D902FEF84E694E0215080409040E1F700C0BA
S1130DA000001DBC1CBC88EB91E099DF2FEF83ECA5
S1130DB099E0215080409040E1F700C000001DBC44
S1130DC01CBC87E295E08BDF2FEF81EE94E021508D
S1130DD080409040E1F700C000001DBC1CBC8CEDBD
S1130DE093E07DDF2FEF83EC99E021508040904029
S1130DF0E1F700C0000097CF089591DF1DBC1CBC33
S1130E0080E793E06CDF2FEF8EE595E02150804082
S1130E109040E1F700C000001DBC1CBC83E992E0D7
S1130E205EDF2FEF8EE595E0215080409040E1F7A2
S1130E3000C000001DBC1CBC88EB91E050DF2FEF0C
S1130E408EE595E0215080409040E1F700C000001D
S1130E501DBC1CBC8EEE91E042DF2FEF8EE595E0C9
S1130E60215080409040E1F700C000005CCF08951D
S1130E7056DF1DBC1CBC8BE092E031DF2FEF89EF05
S1130E8090E0215080409040E1F700C000001DBC7C
S1130E901CBC86E194E023DF2FEF80E792E0215031
S1130EA080409040E1F700C000003DCF089537DF57
S1130EB01DBC1CBC86E194E012DF2FEF80E792E0BA
S1130EC0215080409040E1F700C000001DBC1CBCD4
S1130ED086E295E004DF2FEF80E792E02150804026
S1130EE09040E1F700C000001DBC1CBC8FE196E0FF
S1130EF0F6DE2FEF80E792E0215080409040E1F74A
S1130F0000C0000010CF0895CF93DF93C0E0D0E07D
S1130F102DC005DF1DBC1CBC8BE092E0E0DE2FEF92
S1130F2089EF90E0215080409040E1F700C000003C
S1130F301DBC1CBC80E193E0D2DE2FEF89EF90E072
S1130F40215080409040E1F700C000001DBC1CBC53
S1130F5086E194E0C4DE2FEF80E792E021508040E8
S1130F609040E1F700C00000DEDE2196C230D105DA
S1130F7084F2DF91CF910895D2DE1DBC1CBC8FE1B9
S1130F8096E0ADDE2FEF80E792E021508040904064
S1130F90E1F700C000001DBC1CBC86E295E09FDEAA
S1130FA02FEF80E792E0215080409040E1F700C0AD
S1130FB000001DBC1CBC86E194E091DE2FEF80E7AD
S1130FC092E0215080409040E1F700C00000ABCE99
S1130FD008958436910528F0893823E1920720F496
S1130FE005C084E690E002C088E893E19C0140E0FB
S1130FF050E060E970ED83E090E038D3215031098E
S1131000E0E8F0E031832083808191819695879593
S113101090938700809386000895EBE8F0E0808148
S1131020806880830895EBE8F0E080818F7380838B
S1131030089582B1806F82B98FEF80936100089523
S113104081E08093D00108951092D0010895FC01AD
S11310508091CF0190E0019665E070E0D2D2809358
S1131060CF01823009F472C030F4882359F0813002
S113107009F43DC00895833009F495C0843009F41F
S1131080B6C0089580EF83B99F01369527953695AC
S1131090279536952795A5ECB0E204D3AC0152957B
S11310A042954F7045275F7045279A01ADECBCEC23
S11310B0F9D29695879596958795969587959C01EF
S11310C0220F331F880F991F880F991F880F991FAC
S11310D0820F931F9A01281B390BF901E65FFE4F1B
S11310E080818093620083B18F7E83B9089580EFFD
S11310F083B99F013695279536952795ABE7B4E1DB
S1131100D1D2AC01569547959A01ADECBCECCAD24C
S11311109695879596958795969587959C01220F28
S1131120331F880F991F880F991F880F991F820FEB
S1131130931F9A01281B390BF901E65FFE4F80814A
S11311408093620083B18F7D83B9089580EF83B962
S11311509F01ADECBCECA6D2AC01569547955695D3
S11311604795569547959A019DD29695879596955C
S11311708795969587959C01220F331F880F991F99
S1131180880F991F880F991F820F931F9A01281B9C
S1131190390BF901E65FFE4F80818093620083B1D1
S11311A08F7B83B9089580EF83B99F01ADECBCECCC
S11311B079D29695879596958795969587959C016E
S11311C0220F331F880F991F880F991F880F991FAB
S11311D0820F931F9F01281B390BF901E65FFE4F15
S11311E080818093620083B18F7783B9089580EF03
S11311F083B98091D001882329F0809114018093D0
S1131200620002C01092620083B18F7D83B9089599
S11312109093D2018093D10108958091D10190914E
S1131220D20115CF089544E060E087E390E04BD10C
S113123046E060E087E390E046D147E060E087E382
S113124090E041D160E084E390E034C1089540E04F
S113125064E088E390E055C1089541E064E088E3E8
S113126090E04FC1089540E066E088E390E049C112
S1131270089541E067E088E390E043D18FE99FE07F
S11312800197F1F700C00000089540E067E088E3AB
S113129090E037D18FE99FE00197F1F700C000009B
S11312A00895682F85E390E029C10895CF93C82F4E
S11312B0CEDFD9DFDEDF8C2FF4DFE7DFCF910895B7
S11312C0B2DF8FE59AEE0197F1F700C0000088E3E2
S11312D0EDDF8FE19EE40197F1F700C0000088E3A1
S11312E0E5DF8FE99FE00197F1F700C0000088E394
S11312F0DDDF88E3DBDF88E0D9DF81E0D7DF86E06C
S1131300D5DF8CE0D3CF0895CF93C82FA6DFABDF12
S1131310B0DF8C2FC6DFB9DFCF9108950F931F93F1
S1131320CF93DF938C01C0E0D0E002C0EDDF2196C3
S1131330F801EC0FFD1F80818111F8CFDF91CF916F
S11313401F910F9108956F70817090E4899F600DD3
S11313501124862F8058AACF0895CF93DF93EA01F2
S1131360F2DFCE01DBDFDF91CF9108951F920F9260
S11313700FB60F9211240BB60F922F933F934F93F6
S11313805F936F937F938F939F93AF93BF93EF93E9
S1131390FF9343DF82E882BFFF91EF91BF91AF914A
S11313A09F918F917F916F915F914F913F912F9179
S11313B00F900BBE0F900FBE0F901F9018951F92A9
S11313C00F920FB60F9211240BB60F922F933F93E7
S11313D04F935F936F937F938F939F93AF93BF9339
S11313E0EF93FF937EDBA6DBFF91EF91BF91AF916B
S11313F09F918F917F916F915F914F913F912F9129
S11314000F900BBE0F900FBE0F901F9018951F9258
S11314100F920FB60F9211240BB60F922F933F9396
S11314204F935F936F937F938F939F93AF93BF93E8
S1131430EF93FF93B9D0FF91EF91BF91AF919F913B
S11314408F917F916F915F914F913F912F910F9069
S11314500BBE0F900FBE0F901F9018958FD998D088
S113146085E191E090936702809366026ED076D016
S113147081D082B1886082B987B3806287BB80E003
S11314805BD980E04DD980E051D960E070E0CB01B8
S113149063D980E090E056D94ADCAFDC17DB0E94C8
S11314A0660078940E94FA0076D9E6D90E94AE01CB
S11314B06ED8F8CF611104C02FEFFC01208308958A
S11314C0FC011082089561110CC0FC01508121E0DF
S11314D030E002C0220F331F4A95E2F7252B208308
S11314E00895FC01508121E030E002C0220F331F37
S11314F04A95E2F72095252320830895FC01608313
S11315000895FC01413059F4208181E090E002C04B
S1131510880F991F6A95E2F7822B80830895908142
S113152021E030E002C0220F331F6A95E2F72095D4
S1131530292320830895FC01808190E002C09595C1
S113154087956A95E2F78170089583B7856083BFB4
S113155087B7816087BF82E882BF089585B58360BD
S113156085BD87B7806887BF85B5886085BD89EFED
S113157083BD0895EAE8F0E0808183608083808100
S113158088618083EBE8F0E0808182608083089545
S11315908AB188618AB98BB182608BB98AB180685B
S11315A08AB98FEC89B908959CB19A3091F4E0918D
S11315B0D301AE2FB0E0A150BE4F9C93EF5FF0E09B
S11315C0E150FE4F10821092D30181E080936302B8
S11315D008958091D301E82FF0E0E150FE4F90830D
S11315E08F5F8093D30108955D9BFECF8CB90895DE
S11315F01092630208958091630208958FEF91E041
S1131600089597FB072E16F4009406D077FD08D0B2
S113161062D007FC05D03EF4909581959F4F0895C4
S1131620709561957F4F0895A1E21A2EAA1BBB1BEA
S1131630FD010DC0AA1FBB1FEE1FFF1FA217B3079A
S1131640E407F50720F0A21BB30BE40BF50B661FB0
S1131650771F881F991F1A9469F760957095809574
S113166090959B01AC01BD01CF010895052E97FB18
S113167016F400940FD057FD05D0D6DF07FC02D036
S113168046F408C050954095309521953F4F4F4FF3
S11316905F4F089590958095709561957F4F8F4F1A
S11316A09F4F0895A29FB001B39FC001A39F700DE7
S11316B0811D1124911DB29F700D811D1124911D56
S11316C00895F0DFA59F900DB49F900DA49F800D09
S11316D0911D11240895AA1BBB1B51E107C0AA1F29
S11316E0BB1FA617B70710F0A61BB70B881F991FBF
S11316F05A95A9F780959095BC01CD010895FB01F9
S1131700DC010D900020E9F7119701900D92002063
S1131710E1F70895FB01DC018D910190801901101E
S1131720D9F3990B0895CF93DF93CDB7DEB7AE010C
S11317304B5F5F4FFA0161917191AF018091660235
S11317409091670261D0DF91CF9108950F931F9319
S1131750CF93DF93E0916602F0916702238121FF2A
S11317601BC08C01D0E0C0E0F80181918F01609131
S1131770660270916702DB011896ED91FC9119974E
S1131780882331F00995892B79F3DFEFCFEFECCF84
S11317908AE00995892B19F08FEF9FEF02C08D2FF6
S11317A09C2FDF91CF911F910F9108950F931F9359
S11317B0CF93DF93CDB7DEB72E970FB6F894DEBF85
S11317C00FBECDBF0D891E8986E08C831A830983E1
S11317D08FEF9FE79E838D83AE01475E5F4F6F89D6
S11317E0788DCE01019610D0EF81F885E00FF11FBE
S11317F010822E960FB6F894DEBF0FBECDBFDF91D8
S1131800CF911F910F9108952F923F924F925F9223
S11318106F927F928F929F92AF92BF92CF92DF92FC
S1131820EF92FF920F931F93CF93DF93CDB7DEB761
S11318302B970FB6F894DEBF0FBECDBF6C017B01B2
S11318408A01FC0117821682838181FFBFC1CE0108
S113185001963C01F6019381F70193FD859193FF75
S113186081917F01882309F4ADC1853239F493FD58
S1131870859193FF81917F01853221F4B60190E037
S1131880D6D1E8CF912C212C312CFFE1F315D8F0DF
S11318908B3279F038F4803279F08332A1F4232D3D
S11318A020611DC08D3261F0803369F4232D2160E5
S11318B016C0832D8260382EE32DE4603E2E2AC0AC
S11318C0F32DF8601DC037FC2DC020ED280F2A3001
S11318D040F08E32B9F436FC75C1232D2064322ECB
S11318E019C036FE06C08AE0989E200D1124922E5F
S11318F011C0EAE02E9E200D1124222EF32DF06259
S11319003F2E08C08C3621F4832D8068382E02C007
S1131910883641F4F70193FD859193FF81917F010E
S11319208111B3CF982F9F7D9554933028F40C5F89
S11319301F4F9FE399830DC0833631F0833771F0D5
S1131940833509F055C020C0F801808189830E5F7A
S11319501F4F88248394912C530112C02801F2E074
S11319604F0E511CF801A080B18036FE03C0692DD2
S113197070E002C06FEF7FEFC5014ED14C018201D0
S1131980F32DFF773F2E15C0280122E0420E511C93
S1131990F801A080B18036FE03C0692D70E002C05A
S11319A06FEF7FEFC5012DD14C01F32DF0683F2E71
S11319B0820133FC19C0822D90E088169906A0F4A8
S11319C0B60180E290E033D12A94F5CFF50137FCDB
S11319D0859137FE81915F01B60190E028D12110F5
S11319E02A9421E0821A91088114910479F7E1C0C4
S11319F0843611F0893639F5F80137FE07C0608165
S1131A007181828193810C5F1F4F08C06081718155
S1131A10072E000C880B990B0E5F1F4FF32DFF76DA
S1131A203F2E97FF09C090958095709561957F4FE3
S1131A308F4F9F4FF0683F2E2AE030E0A30133D14F
S1131A40882E861844C0853731F4232D2F7EB22E7C
S1131A502AE030E025C0932D997FB92E8F36C1F04E
S1131A6018F4883579F0AEC0803719F0883721F042
S1131A70A9C0E92FE061BE2EB4FE0DC0FB2DF460B9
S1131A80BF2E09C034FE0AC0292F2660B22E06C01C
S1131A9028E030E005C020E130E002C020E132E07F
S1131AA0F801B7FE07C060817181828193810C5F68
S1131AB01F4F06C06081718180E090E00E5F1F4F70
S1131AC0A301F1D0882E8618FB2DFF773F2E36FE1A
S1131AD00DC0232D2E7FA22E891458F434FE0BC082
S1131AE032FC09C0832D8E7EA82E05C0B82CA32CF1
S1131AF003C0B82C01C0B92CA4FE0FC0FE01E80D30
S1131B00F11D8081803321F49A2D997EA92E09C07C
S1131B10A2FE06C0B394B39404C08A2D867809F05B
S1131B20B394A3FC10C0A0FE06C0B21480F4280C29
S1131B30922C9B180DC0B21458F4B60180E290E0C8
S1131B4076D0B394F8CFB21418F42B1802C0982CA2
S1131B50212CA4FE0FC0B60180E390E068D0A2FE61
S1131B6016C0A1FC03C088E790E002C088E590E0BD
S1131B70B6010CC08A2D867851F0A1FE02C08BE21A
S1131B8001C080E2A7FC8DE2B60190E050D0891438
S1131B9030F4B60180E390E04AD09A94F8CF8A9466
S1131BA0F301E80DF11D8081B60190E040D0811071
S1131BB0F6CF222009F44ECEB60180E290E037D071
S1131BC02A94F7CFF6018681978102C08FEF9FEFA9
S1131BD02B960FB6F894DEBF0FBECDBFDF91CF9129
S1131BE01F910F91FF90EF90DF90CF90BF90AF9037
S1131BF09F908F907F906F905F904F903F902F9029
S1131C000895FC010590615070400110D8F780954B
S1131C1090958E0F9F1F0895FC01615070400190B4
S1131C200110D8F7809590958E0F9F1F08950F93FC
S1131C301F93CF93DF93FB01238121FD03C08FEF1B
S1131C409FEF2CC022FF16C0468157812481358125
S1131C504217530744F4A081B1819D012F5F3F4F88
S1131C60318320838C93268137812F5F3F4F3783C5
S1131C70268314C08B01EC01FB010084F185E02D67
S1131C800995892BE1F6D80116968D919C911797A9
S1131C90019617969C938E931697CE01DF91CF9160
S1131CA01F910F910895FA01AA27283051F120318C
S1131CB081F1E8946F936E7F6E5F7F4F8F4F9F4FDC
S1131CC0AF4FB1E03ED0B4E03CD0670F781F891F1E
S1131CD09A1FA11D680F791F8A1F911DA11D6A0FEC
S1131CE0711D811D911DA11D20D009F468943F919F
S1131CF02AE0269F11243019305D3193DEF6CF019E
S1131D000895462F4770405D4193B3E00FD0C9F763
S1131D10F6CF462F4F70405D4A3318F0495D31FDD0
S1131D204052419302D0A9F7EACFB4E0A695979523
S1131D30879577956795BA95C9F7009761057105F9
S1131D4008959B01AC010A2E069457954795379543
S1131D502795BA95C9F7620F731F841F951FA01D9D
S1091D600895F894FFCF82
S1131D66AD01B201B701BC0153013F065B4F666D7D
S1131D767D077F67800000000200000000F40A006F
S1131D8600000053504545445F4348414E47450AC9
S1131D96004F4E5F4F46460A005745414B004D499A
S1131DA644444C450046414E5F4F46460041555417
S1131DB64F0A004155544F005354524F4E4700505A
S1131DC65245560054494D45525F4348414E474596
S1131DD60A0054494D4552310054494D455232008A
S1131DE654494D4552330054494D45525F4F46467A
S1131DF60025732000496E74656C2035746820468E
S1131E06616E00253032643A25303264004F46460E
S1131E16200053504431005350443200535044334D
S1051E260000B6
S9030000FC
